:020000040800F2
:1000000060070020E1180008F5030008F703000866
:10001000FB030008FF0300080304000800000000C1
:1000200000000000000000000000000007040008BD
:1000300009040008000000000B0400080D0400087B
:10004000FB180008FB180008FB180008FB18000844
:10005000FB180008FB180008FB180008FB18000834
:10006000FB180008FB180008FB180008FB18000824
:10007000FB180008FB180008FB180008FB18000814
:10008000FB180008FB180008FB180008FB18000804
:10009000FB180008FB180008FB180008FB180008F4
:1000A000FB180008FB180008FB180008FB180008E4
:1000B000FB180008FB180008FB180008FB180008D4
:1000C000FB180008FB180008FB180008FB180008C4
:1000D000FB18000855180008FB180008FB1800085A
:1000E000FB180008FB180008FB180008FB180008A4
:1000F000FB180008FB180008FB180008FB18000894
:10010000FB180008FB180008FB180008FB18000883
:10011000FB180008FB180008FB180008FB18000873
:10012000FB180008FB180008FB180008FB18000863
:10013000FB180008FB180008FB180008FB18000853
:10014000FB180008FB180008FB180008FB18000843
:10015000FB180008FB180008FB180008FB18000833
:10016000FB180008FB180008FB180008FB18000823
:10017000FB180008FB180008FB180008FB18000813
:10018000FB180008FB18000800F002F800F041F826
:100190000AA090E8000C82448344AAF10107DA45E2
:1001A00001D100F036F8AFF2090EBAE80F0013F0F3
:1001B000010F18BFFB1A43F0010318474845000020
:1001C00068450000103A24BF78C878C1FAD85207B1
:1001D00024BF30C830C144BF04680C6070470000C1
:1001E0000023002400250026103A28BF78C1FBD840
:1001F000520728BF30C148BF0B607047642903F025
:100200007383002070471FB503F066FC1FBD10B557
:1002100010BD03F031FC1146FFF7F5FF00F04BF87D
:1002200003F04FFC03B4FFF7F2FF03BC01F0B2FA96
:1002300070B5044614F1030F0ADD032C08DA00211F
:100240005B4802F05AFF0021594802F058FF70BD88
:100250005848008808B1822500E05025002C00DABB
:100260002D1B002C00DD254414F1030F07DA29466D
:100270004F4802F042FF00214D4802F040FF032C9E
:1002800007DD29464A4802F03AFF0021484802F0BB
:1002900034FF0A2001F05EFA00BFD8E710B504462B
:1002A00004EB840000F26C71434802F026FF0A2040
:1002B00001F050FA10BD8AB000264FF4A06001F0A2
:1002C0002FFBA82001F0E4F94FF4E13001F070FABF
:1002D00000F0A6F900F06EFF00F079FA532140F625
:1002E000045001F095F8532140F2E73001F077F91E
:1002F000532140F2E73001F023F940F26C712E48AF
:1003000002F0FBFE2DA003F0AFFA0A2001F022FA62
:1003100008E02EA20021084600F012FD4FF4C8703C
:1003200001F018FA00F0D7FA0028F2D100F06AFBC9
:100330003DE001A800F049FB002833D18DF82400EE
:100340009DF8040018B99DF80500444201E09DF8AD
:1003500005409DF8060018B99DF80700454201E0E8
:100360009DF807509DF8080000B900E000BF9DF817
:100370000A0000B900E000BF9DF80C000D4908809C
:100380000A2001F0E7F92A46214614A003F06CFA8E
:100390002046FFF783FF2846FFF74AFF0A2001F0B7
:1003A000D9F902E0642001F08DF9701C86B2C0E733
:1003B000000800400000002000200040496E6974E1
:1003C00020736563636573730A0000004E52463202
:1003D000344C3031204572726F720000726F6C6C59
:1003E000203D2025642C7069746368203D202564BD
:1003F000200A0A00704700BFFEE700BFFEE700BF0B
:10040000FEE700BFFEE77047704770477047000087
:100410000CB50020019000907648006840F48030D0
:100420007449086000BF7348006800F40030009011
:100430000198401C0190009818B90198B0F5A04FA0
:10044000F1D16C48006800F4003010B10120009038
:1004500001E0002000900098012846D16548403016
:10046000006840F08050634940310860624800688D
:1004700040F44040604908605E48083000685D49CB
:10048000083108600846006840F4004008600846EB
:10049000006840F4A05008605848091F0860081F11
:1004A000006840F08070091F086000BF5148006874
:1004B00000F000700028F9D040F205705049086043
:1004C0004C480830006820F003004A4908310860B1
:1004D0000846006840F00200086000BF4548083048
:1004E000006800F00C000828F8D10CBD10B5454894
:1004F000006840F47000434908603E48006840F0DE
:1005000001003C49086000203A4908310860394838
:1005100000683D490840374908603C48091D0860AB
:10052000081F006820F48020091F0860002031495E
:100530000C310860FFF76CFF4FF0006031498039E3
:10054000086010BD70B500200022022300240221A3
:10055000284D08352D6805F00C0020B1042806D080
:10056000082834D107E02A4D2A4E356033E02A4D61
:10057000284E35602FE01F4D2D1D2D68C5F380548A
:100580001C4D2D1D2D6805F03F0154B1224DB5FBCA
:10059000F1F5184E361D3668C6F3881605FB06F2CF
:1005A00009E01B4DB5FBF1F5124E361D3668C6F35A
:1005B000881605FB06F20F4D2D1D2D68C5F301456C
:1005C0006D1C6B00B2FBF3F5124E356003E0104D6D
:1005D000104E356000BF00BF064D08352D68C5F3CD
:1005E00003150E4E705D0B4D2D68C540094E3560EC
:1005F00070BD000000380240007000400854400701
:10060000003C024088ED00E0FFFFF6FE10300024C1
:100610000024F4000400002000127A0008000020EA
:100620001CB50121202001F00FFD4FF4C0600090A7
:1006300001208DF8040000208DF8060003208DF8BD
:10064000050001208DF807006946044801F05EFAB4
:100650004FF4C061014801F0D5FA1CBD00140240FE
:1006600010B5044600BF0221414802F051F80028AD
:10067000F9D021463E4802F002F800BF01213C4873
:1006800002F046F80028F9D0394801F0F5FFC0B271
:1006900010BD00B587B00121084601F0D5FC01214D
:1006A000080301F02BFD3820059002208DF818007A
:1006B00000208DF81A0003208DF8190001208DF814
:1006C0001B0005A92B4801F021FA05220321294826
:1006D00001F0A7FA05220421264801F0A2FA05221A
:1006E0001146244801F09DFA0121080301F05BFD49
:1006F00000214FF4805001F056FD0020ADF80000BD
:100700004FF48270ADF802000020ADF80400022022
:10071000ADF806000120ADF808004002ADF80A006F
:100720003820ADF80C000020ADF80E000720ADF821
:10073000100069460E4801F027FE01210C4801F027
:100740001DFFFF20FFF78CFF07B000BD10B504466A
:10075000074800884FF6C7710840054908800846D9
:100760000088204308800121014801F007FF10BDE7
:10077000003001400004024000B585B00021CA48A5
:1007800001F0FCFE0020ADF800004FF48270ADF8DF
:1007900002000020ADF80400ADF80600ADF8080036
:1007A0004FF40070ADF80A003820ADF80C000020BE
:1007B000ADF80E000720ADF810006946BA4801F008
:1007C000E3FD0121B84801F0D9FE05B000BD1CB51C
:1007D0000121422001F038FC4FF4804000900120BC
:1007E0008DF8040000208DF8060003208DF8050028
:1007F00001208DF807006946AC4801F087F9C02058
:10080000009001208DF8040000208DF806000320E0
:100810008DF8050001208DF807006946A44801F015
:1008200075F94FF48070009000208DF804000120CD
:100830008DF8070069469E4801F068F94FF4804141
:100840009A4801F0DFF9FFF724FFFFF795FF00203A
:100850009849086001209849C1F89C021CBD2DE907
:10086000F04107460D46164600209249091D0860D2
:100870003846FFF7F5FE8046002405E0FF20FFF72D
:10088000EFFE2855601CC4B2B442F7DB0120894951
:10089000091D08604046BDE8F0812DE9F04107469A
:1008A0000C46154600208349091D08603846FFF7AD
:1008B000D7FE8046002605E014F8010BFFF7D0FEB6
:1008C000701CC6B2AE42F7DB01207A49091D0860F0
:1008D0004046BDE8F0811CB578A103C9CDE900010F
:1008E0001020FFF733FF052269463020FFF7D5FFC0
:1008F000052269461020FFF7B2FF002406E01DF82C
:100900000400A52800D003E0601CC4B2052CF6DB6F
:1009100000BF052C01D001201CBD0020FCE770B5F4
:1009200005460C4600206349091D08602846FFF76C
:1009300097FE06462046FFF793FE01205E49C1F868
:100940009C02304670BD70B5044600205949091D0F
:1009500008602046FFF784FEFF20FFF781FE054672
:1009600001205549C1F89C02284670BD70B5054666
:100970001020FFF7EBFE00204E4908602022294698
:10098000A020FFF78AFF01204B49C1F8980200BF61
:100990004848783800680028FAD10720FFF7D3FFCD
:1009A000044621462720FFF7BAFF04F0100028B1C3
:1009B000FF21E120FFF7B3FF102070BD04F02000FD
:1009C00008B12020F9E7FF20F7E770B504461020B2
:1009D000FFF7BCFE0720FFF7B6FF05462946272094
:1009E000FFF79DFF05F0400050B120222146612015
:1009F000FFF735FFFF21E220FFF791FF002070BDD8
:100A00000120FCE710B500202A49086005222D4985
:100A10002A20FFF742FF01212120FFF780FF01215B
:100A20002220FFF77CFF28212520FFF778FF2021D7
:100A30003120FFF774FF0F212620FFF770FF0F21F1
:100A40002020FFF76CFF01201B49C1F8980210BD60
:100A500010B500201749086005221B493020FFF718
:100A60001CFF052217492A20FFF717FF012121202B
:100A7000FFF755FF01212220FFF751FF1A21242003
:100A8000FFF74DFF28212520FFF749FF0F212620E2
:100A9000FFF745FF0E212020FFF741FF0120064907
:100AA000C1F8980210BD000000300140000402406F
:100AB000001802409802434200004342A5A5A5A5A4
:100AC000A5000000E73A0008E23A000870B50446C5
:100AD000002518E004F0800018B10120FD490860ED
:100AE00002E00020FB4908600120FA49091F086064
:100AF000042000F0E7FD0020F749C1F8A0026006DD
:100B0000040E681CC5B2082DE4DB0120F149086021
:100B1000F149C1F8A002042000F0D4FD0020ED4905
:100B2000091F086070BD10B5044600F062FB782014
:100B300000F00BFC00F09EFB402000F006FC00F0F3
:100B400099FB204600F001FC00F094FB00F073FBE1
:100B500010BD10B5044600F04CFB782000F0F5FB0A
:100B600000F088FB08B100BFFEE7002000F0EDFBBD
:100B700000F080FB204600F0E8FB00F07BFB00F07B
:100B80005AFB10BD70B504460D4605F1B001C8B260
:100B9000FFF7DFFF102141EA1410FFF7DAFF04F03E
:100BA0000F0141F00100FFF7D4FF70BD70B506469C
:100BB000002415E004F1B001C8B2FFF7CAFF01201C
:100BC000FFF7C7FF1020FFF7C4FF002504E0304601
:100BD000FFF7A9FF681CC5B2802DF8DB601CC4B20A
:100BE000082CE7DB70BD70B5002415E004F1B001FE
:100BF000C8B2FFF7AEFF0120FFF7ABFF1020FFF7F1
:100C0000A8FF002504E00020FFF78DFF681CC5B297
:100C1000802DF8DB601CC4B2082CE7DB70BD10B57A
:100C20004FF4FA7000F096FDAE20FFF792FF00201F
:100C3000FFF78FFF1020FFF78CFF4020FFF789FFA1
:100C40008120FFF786FFCF20FFF783FFA120FFF76A
:100C500080FFC820FFF77DFFA620FFF77AFFA820BE
:100C6000FFF777FF3F20FFF774FFD320FFF771FFF7
:100C70000020FFF76EFFD520FFF76BFF8020FFF706
:100C800068FFD920FFF765FFF120FFF762FFDA2048
:100C9000FFF75FFF1220FFF75CFFDB20FFF759FF34
:100CA0004020FFF756FF2020FFF753FF0220FFF7F9
:100CB00050FF8D20FFF74DFF1420FFF74AFFA420BF
:100CC000FFF747FFA620FFF744FFAF20FFF741FFE4
:100CD0000020FFF76BFF00210846FFF753FF10BD10
:100CE0002DE9F0470446884615464FF000090026D6
:100CF000002720E0E85D203800F0FF097E2C04DDAD
:100D0000002408F1010000F0FF0841462046FFF7EB
:100D100039FF002609E009EB4901704A02EB410165
:100D2000885DFFF700FF701CC6B2062EF3DBA01D26
:100D3000C4B2781CC7B2E85D0028DBD1BDE8F087FB
:100D40002DE9F04706460F46904600250024A146AF
:100D500031E018F809002038C5B2782E02DD0026EF
:100D6000781CC7B239463046FFF70CFF002407E075
:100D700004EB05115A4A505CFFF7D5FE601CC4B263
:100D8000082CF5DB781CC1B23046FFF7FBFE0024CF
:100D900008E004EB05110831514A505CFFF7C3FE2F
:100DA000601CC4B2082CF4DB06F10800C6B209F1DD
:100DB000010000F0FF0918F809000028C9D1BDE8BA
:100DC000F0872DE9F04180460E46174600247D014C
:100DD00031464046FFF7D6FE00BF06E04149485D78
:100DE000FFF7A1FE6D1C601CC4B2102CF6DB701C5A
:100DF000C1B24046FFF7C6FE002406E03949485D0F
:100E0000FFF791FE6D1C601CC4B2102CF6DBBDE830
:100E1000F0812DE9F05F06460F4690461C46DDF84E
:100E200028A04FF0000BE11704EB5171C910A4EB9F
:100E3000C10131B92046E11704EB5171C1F3C70577
:100E400006E02046E11704EB5171C910491CCDB2F0
:100E50003D4614E029463046FFF794FEB1460AE0CD
:100E600059460BF1010B1AF80100FFF75CFE09F17E
:100E7000010000F0FF09C145F2DB681CC5B2A542C4
:100E8000E8DBBDE8F09F2DE9F04706460F469046A7
:100E900000250024A14608F11000C5B2782E02DD1D
:100EA0000026781CC7B239463046FFF76BFE002497
:100EB00007E004EB05110A4A505CFFF734FE601CA2
:100EC000C4B2082CF5DB781CC1B23046FFF75AFEDD
:100ED000002412E0A482404200804042EC3E000820
:100EE00014410008EC3A000804EB05110831A54A4A
:100EF000505CFFF718FE601CC4B2082CF4DB06F14E
:100F00000800C6B209F1010000F0FF09BDE8F08752
:100F100070B52DED048BB0EE408AF0EE608AB0EE35
:100F2000419A0546BDEEC80A10EE104A96A200216D
:100F30000846FFF705FF002C06DA644294A2002160
:100F40002820FFF7FDFE04E092A200212820FFF7F1
:100F5000F7FE642C22DB642094FBF0F006B23246EC
:100F600000213020FFF78FFF0A2094FBF0F00A21C8
:100F700090FBF1F201FB120006B23246002138204C
:100F8000FFF781FF0A2094FBF0F100FB114006B24D
:100F9000324600214020FFF776FF18E00A2094FB3C
:100FA000F0F006B2324600213020FFF76CFF0A2035
:100FB00094FBF0F100FB114006B2324600213820CC
:100FC000FFF761FF73A200214020FFF7B9FE72A274
:100FD00002210020FFF7B4FEBDEEE80A10EE104A31
:100FE000002C06DA64426AA202213020FFF7A8FE34
:100FF00004E068A202213020FFF7A2FE642C22DB6D
:10100000642094FBF0F006B2324602213820FFF74C
:101010003AFF0A2094FBF0F00A2190FBF1F201FB69
:10102000120006B2324602214020FFF72CFF0A20B0
:1010300094FBF0F100FB114006B232460221482039
:10104000FFF721FF18E00A2094FBF0F006B23246C9
:1010500002213820FFF717FF0A2094FBF0F100FB74
:10106000114006B2324602214020FFF70CFF49A290
:1010700002214820FFF764FE49A204210020FFF767
:101080005FFEBDEEC90A10EE104A002C06DA64427B
:101090003FA204212020FFF753FE04E03DA20421DB
:1010A0002020FFF74DFE642C22DB642094FBF0F03F
:1010B00006B2324604212820FFF7E5FE0A2094FB01
:1010C000F0F00A2190FBF1F201FB120006B2324669
:1010D00004213020FFF7D7FE0A2094FBF0F100FB3B
:1010E000114006B2324604213820FFF7CCFE18E04A
:1010F0000A2094FBF0F006B2324604212820FFF7C4
:10110000C2FE0A2094FBF0F100FB114006B2324609
:1011100004213020FFF7B7FE1EA204213820FFF77C
:101120000FFE21A206210020FFF70AFE2C46002C0C
:1011300006DA644216A206213820FFF701FE04E019
:1011400014A206213820FFF7FBFD0A2094FBF0F0E3
:1011500006B2324606214020FFF795FE0A2094FB96
:10116000F0F100FB114006B2324606214820FFF79D
:101170008AFE0FA206215020FFF7E2FDBDEC048B92
:1011800070BD000014410008726F6C6C3D000000DF
:101190002D0000002000000070697463683D0000AD
:1011A0007961773D0000000074656D7065723D00E7
:1011B0005E4300001CB50121022000F045FF4FF402
:1011C0004070009001208DF8040000208DF806008A
:1011D00003208DF8050001208DF807006946894835
:1011E00000F094FC0120884908608849C1F8A402F5
:1011F0001CBD10B58348006820F440208149086078
:101200000846006840F48020086001207E49091DDE
:1012100008607E49C1F8A002042000F053FA0020C3
:101220007949091D0860042000F04CFA0020774934
:10123000C1F8A00210BD10B57248006820F440202B
:10124000704908600846006840F48020086000206B
:101250006D4908606D49C1F8A402042000F032FA1B
:101260000120694908606949C1F8A402042000F01E
:1012700029FA10BD10B500246248006820F440200F
:101280006049086008460068086001205E49091D41
:10129000086000F017FA01205C49C1F8A00200F0D4
:1012A00011FA07E0601CC4B2FA2C03DDFFF7C3FF9C
:1012B000012010BD54487C3800680028F2D1524902
:1012C000086000BFF5E710B500204F4908604D48A1
:1012D000006820F440204B4908600846006840F44C
:1012E0008020086000204949C1F8A402022000F0D3
:1012F000E9F9012044490860022000F0E3F90020E8
:101300004249C1F8A00210BD10B500203E49086056
:101310003C48006820F440203A49086008460068CC
:1013200040F48020086001203849C1F8A40202205E
:1013300000F0C8F9012034490860022000F0C2F929
:1013400000203249C1F8A00210BD70B504462D48F6
:10135000006820F440202B4908600846006840F4EB
:1013600080200860002028490860002517E0E00977
:101370002549091D08606006040E022000F0A2F94C
:1013800001202249C1F8A002022000F09BF90020B0
:101390001D490860022000F095F9681CC5B2082DAF
:1013A000E5DB70BD70B5054600241648006820F4E2
:1013B000402014490860084600680860002616E0CE
:1013C000002011490860022000F07CF901200F493B
:1013D000C1F8A0026006040E0B487C38006808B112
:1013E000601CC4B2012000F06DF9701CC6B2082E5A
:1013F000E6DB15B9FFF788FF01E0FFF764FF204641
:1014000070BD000000040240A082404200804042C3
:1014100030B58BB004460D460121080200F05DFE98
:101420000121202000F010FE09221146934800F00F
:10143000F8FB4FF40070099002208DF8280003207B
:101440008DF8290000208DF82A0001208DF82B004E
:1014500009A98A4800F05AFBA8B2ADF8180000208C
:10146000ADF81A000794ADF8200006A9844801F0F1
:1014700056FC6020ADF804000120ADF80600022003
:10148000ADF8100001A97E4801F0DEFC08217C487F
:1014900001F067FE01217A4801F0ACFC0121784897
:1014A00001F0C6FC0BB030BD30B58BB004460D4624
:1014B0000121802000F011FE0121202000F0C4FD58
:1014C000092208216D4800F0ACFB4FF480700990B0
:1014D00002208DF8280003208DF8290000208DF8C7
:1014E0002A0001208DF82B0009A9644800F00EFBAA
:1014F000A8B2ADF818000020ADF81A000794ADF8B6
:10150000200006A95F4801F00AFC6020ADF8040045
:101510000120ADF806000220ADF8100001A95948DD
:1015200001F092FC0821574801F01BFE01215548AB
:1015300001F060FC0121534801F07AFC0BB030BD92
:1015400030B58BB004460D460121084600F0D6FDAB
:101550000121022000F078FD022207214A4800F014
:1015600060FB8020099002208DF8280003208DF870
:10157000290000208DF82A0001208DF82B0009A9F0
:10158000414800F0C3FA0121042000F0A6FDA8B2F2
:10159000ADF818000020ADF81A000794ADF820004F
:1015A00006A93A4801F0BBFB6020ADF80400012019
:1015B000ADF806000220ADF8100001A9334801F093
:1015C0007CFC0821314801F0D5FD01212F4801F0B4
:1015D00011FC01212D4801F02BFC0BB030BD30B5C2
:1015E0008BB004460D460121084600F087FD01211D
:1015F000022000F029FD02220621234800F011FB01
:101600004020099002208DF8280003208DF8290041
:1016100000208DF82A0001208DF82B0009A91A4816
:1016200000F074FA0121042000F057FDA8B2ADF8D3
:1016300018000020ADF81A000794ADF8200006A9A4
:10164000124801F06CFB6020ADF804000120ADF8F9
:1016500006000220ADF8100001A90C4801F0F4FBCF
:1016600008210A4801F07DFD0121084801F0C2FB74
:101670000121064801F0DCFB0BB030BD0014024034
:1016800000200040001C0040000402400008004010
:1016900010B504466FF0040000F094F9E11704EB74
:1016A0005171C1F3C701394A11701046007800EB3F
:1016B0004001C1EBC0104FF6FF7101EAC000344990
:1016C000088010BD0146314A12784A434FF0E023AA
:1016D0005A6100229A611A46126942F001021A61A7
:1016E00000BF4FF0E022106900F001021AB100F4CF
:1016F0008032002AF5D04FF0E022126922F0010278
:101700004FF0E0231A6100229A6170470146204A97
:1017100012884A434FF0E0235A6100229A611A4628
:10172000126942F001021A6100BF4FF0E022106915
:1017300000F001021AB100F48032002AF5D04FF017
:10174000E022126922F001024FF0E0231A61002228
:101750009A61704770B504464FF4077094FBF0F03F
:10176000C6B24FF4077094FBF0F100FB114085B254
:1017700005E04FF40770FFF7C9FF701EC6B2002ED8
:10178000F7D115B12846FFF7C1FF70BD1800002042
:101790001A000020014600BF704700BF4C4A128863
:1017A00002F04002002AF9D0C2B2494B9A80704739
:1017B00010B588B004460121084600F045FC01211F
:1017C000102000F09BFC07220921424800F029FA72
:1017D00007220A213F4800F024FA4FF4C060069027
:1017E00002208DF81C008DF81D0000208DF81E00D1
:1017F00001208DF81F0006A9364800F087F90294F1
:101800000020ADF80C00ADF80E00ADF81000ADF8FA
:1018100014000C20ADF8120002A92D4801F00FF8B9
:1018200001212B4801F093F8012240F2255128486C
:1018300001F043F925208DF8040003208DF8050000
:101840008DF8060001208DF8070001A800F06DF862
:1018500008B010BD10B540F225511D4801F068F9DF
:1018600010B31B4801F0A2F8C4B21B48008800F472
:101870000040C8B91848008800F4804060B10A2CC4
:1018800003D000201449088020E01348008840F469
:1018900000401149088019E00D2C06D10E4800883F
:1018A00040F480400C49088010E00B480088C0F3E9
:1018B0000D000A490C5408480088401C064908805D
:1018C00008460088C72801DD0020088010BD000000
:1018D00000100140000002402000002034000020E1
:1018E0000948804709480047FEE7FEE7FEE7FEE7B4
:1018F000FEE7FEE7FEE7FEE7FEE7FEE704480549F0
:10190000054A064B70470000ED04000889010008F5
:1019100060010020600700206003002060030020B9
:1019200032490143324A1160704770B500210023EB
:101930000F22C4781CB32E4C246804F4E064C4F570
:10194000E064C4F30721C1F10404E3B20A4144781E
:101950009C40E1B28478144021430C07210E254CB1
:1019600005786155047804F01F050124AC40057822
:101970006D11AD0005F1E025C5F8004109E00478DE
:1019800004F01F050124AC401B4D0678761145F884
:10199000264070BD194A0A400243154B1B1F1A60AE
:1019A000704739B1124A121D12680243104B1B1DB9
:1019B0001A6006E00E4A121D126882430C4B1B1D72
:1019C0001A607047042808D14FF0E021096941F0FE
:1019D00004014FF0E022116107E04FF0E0210969B6
:1019E00021F004014FF0E022116170470000FA0578
:1019F0000CED00E000E400E080E100E080FFFF1F6C
:101A000010B504469848844208D10121084600F0E8
:101A100086FB0021012000F082FB76E0934884429F
:101A200008D10121022000F07AFB0021022000F001
:101A300076FB6AE08E48844208D10121042000F040
:101A40006EFB0021042000F06AFB5EE089488442BE
:101A500008D10121082000F062FB0021082000F0DD
:101A60005EFB52E08448844208D10121102000F03E
:101A700056FB0021102000F052FB46E07F488442D4
:101A800008D10121202000F04AFB0021202000F095
:101A900046FB3AE07A48844208D10121402000F018
:101AA0003EFB0021402000F03AFB2EE075488442C6
:101AB00008D10121802000F032FB0021802000F0BD
:101AC0002EFB22E07048844208D10121801500F0ED
:101AD00026FB0021A01500F022FB16E06B48844293
:101AE00008D10121401500F01AFB0021601500F01B
:101AF00016FB0AE06648844207D10121001500F078
:101B00000EFB0021201500F00AFB10BDF0B50A46BF
:101B100000210023002400BF3DE0012505FA01F368
:101B2000156805EA03049C4234D105684F0003267A
:101B3000BE40B543056015794E00B5400668354393
:101B400005601579012D02D01579022D16D1856811
:101B50004F000326BE40B543856055794E00B54021
:101B6000866835438560456801268E40B5434560EB
:101B7000456896798E40B6B235434560C5684F00DA
:101B80000326BE40B543C560D5794E00B540C66852
:101B90003543C560491C1029BFD3F0BD4FF6FF7116
:101BA00001600021017141718171C171704708B5F7
:101BB0004FF480320092009A0A430092009AC26168
:101BC000C161009AC261C2690092C269009208BDF7
:101BD0000246002013690B400BB1012000E00020F9
:101BE00070470146086980B2704702460020536979
:101BF0000B400BB1012000E000207047014648690E
:101C000080B2704701837047418370470AB10183F6
:101C100000E0418370474161704742694A40426138
:101C20007047F0B5002300244D07ED0E02FA05F3CE
:101C3000CE1000F1200555F826504E07F70E0F265E
:101C4000BE40B543CF1000F1200646F82750CE1015
:101C500000F1200555F8265045EA0304CE1000F1A6
:101C6000200545F82640F0BD000002400004024077
:101C700000080240000C0240001002400014024024
:101C800000180240001C02400020024000240240D4
:101C900000280240F948006840F00100F749086058
:101CA0000020F64908310860F4480068F44908400B
:101CB000F2490860F348091D0860F348EF49843190
:101CC0000860F0481038091D0860EC48006820F4EE
:101CD0008020EA4908600020E8490C310860E749A3
:101CE0008C31086070470021E44A921C1170114643
:101CF0000870704710B501460022002300204A11E9
:101D0000012A02D1DD4C236808E0022A03D1DB4C12
:101D10007034236802E0D94C7434236801F01F0248
:101D2000012494401C400CB1012000E0002010BDB3
:101D300038B5002000900024002500BF3120FFF7B7
:101D4000D9FF05460098401C00900098B0F5A04FC0
:101D500001D0002DF2D03120FFF7CCFF08B10124D3
:101D600000E00024204638BD01460020C34A106828
:101D700020F0F80040EAC10010607047C3490860D5
:101D800070470021BD4A703211701170012802D0D5
:101D900004280AD104E00121B84A7032117005E02C
:101DA0000521B64A7032117000E000BF00BF7047D5
:101DB000B7490860704770B5049C41EA8215012656
:101DC000C6EB530645EA0645054345EA0465AB4EB6
:101DD000361D356070BDAD4908667047820142EA24
:101DE0000172A64B84331A607047A8498866704711
:101DF00010B5830143EA016343EA02739F4C8834C0
:101E0000236010BDA14908677047A049C8647047A6
:101E100002460020994B0833186820F0EC6042EA33
:101E200001031843954B08331860704702460020A1
:101E3000924B0833186820F0784042EA01031843B7
:101E40008E4B083318607047014600208B4A0832D9
:101E5000106820F00300084310607047874808307E
:101E6000006800F00C00704701460020834A0832E9
:101E7000106820F0F0000843106070470146002011
:101E80007E4A0832106820F4E05008431060704722
:101E900001460020794A0832106820F4604040EA88
:101EA000C10010607047F0B5002100220024022517
:101EB00000260223714F08373F6807F00C0121B15B
:101EC000042905D0082937D105E0724F076036E0B4
:101ED000714F076033E0694F3F1D3F68C7F380567D
:101EE000664F3F1D3F6807F03F036EB16A4FB7FB77
:101EF000F3F7DFF888C10CF1040CDCF800C0CCF378
:101F0000881C07FB0CF40CE0624FB7FBF3F7DFF81B
:101F10006CC10CF1040CDCF800C0CCF3881C07FB8E
:101F20000CF4564F3F1D3F68C7F301477F1C7D00EF
:101F3000B4FBF5F7076002E0564F076000BF00BF33
:101F40004E4F08373F6807F0F0010909534F7A5C9C
:101F50000768D7404760494F08373F6807F4E051AA
:101F6000890A4E4F7A5C4768D7408760434F0837ED
:101F70003F6807F46041490B484F7A5C4768D74097
:101F8000C760F0BD002100F44072B2F5407F0AD175
:101F90003A4A0832116821F4F811414A02401143CB
:101FA000364A08321160354A70321268C0F30B03AA
:101FB0001A43324B70331A60704735494439086010
:101FC00070473349403908607047364908607047A8
:101FD00001460020294A8C32106820F01F004A1E5A
:101FE0001043264A8C321060704701460020234A75
:101FF0008C32106820F4F8504A1E40EA02201F4A32
:102000008C3210607047014600201C4A8C321068E8
:1020100020F4401008431060704701460020174A22
:102020008C32106820F4400008431060704701466D
:102030000020124A8C32106820F4403008431060AF
:10204000704719490860704739B10C4A303212683C
:1020500002430A4B30331A6006E0084A30321268F5
:102060008243064B30331A607047F9B1034A343269
:1020700012680243014B34331A601CE000380240FE
:10208000FFFFF6EA10300024003000200000474235
:10209000800E47420024F40000127A002200002043
:1020A000FFFCFF0F5C014742E01147428F4A126874
:1020B00082438E4B1A60704739B18C4A121D1268E8
:1020C00002438A4B1B1D1A6006E0884A121D1268E3
:1020D0008243864B1B1D1A60704739B1834A0C320C
:1020E00012680243814B0C331A6006E07F4A0C32BF
:1020F000126882437D4B0C331A60704739B17B4ABA
:10210000103212680243794B10331A6006E0774AA6
:10211000103212688243754B10331A60704739B120
:10212000724A243A12680243704B243B1A6006E05C
:102130006E4A243A126882436C4B243B1A60704703
:1021400039B16A4A203A12680243684B203B1A6050
:1021500006E0664A203A12688243644B203B1A60CC
:10216000704739B1614A1C3A126802435F4B1C3B0D
:102170001A6006E05D4A1C3A126882435B4B1C3BC6
:102180001A60704739B1594A143A12680243574BE2
:10219000143B1A6006E0554A143A12688243534BC6
:1021A000143B1A60704739B1504A103A1268024322
:1021B0004E4B103B1A6006E04C4A103A12688243BC
:1021C0004A4B103B1A60704739B1484A1C321268BA
:1021D0000243464B1C331A6006E0444A1C32126824
:1021E0008243424B1C331A60704739B13F4A203258
:1021F000126802433D4B20331A6006E03B4A20320E
:1022000012688243394B20331A60704739B1374A1C
:10221000243212680243354B24331A6006E0334AF5
:10222000243212688243314B24331A60704739B12B
:102230002E4A2C32126802432C4B2C331A6006E0D3
:102240002A4A2C3212688243284B2C331A6070477A
:1022500039B1264A303212680243244B30331A60B7
:1022600006E0224A303212688243204B30331A6033
:102270007047012808D11D493C31096841F0080127
:102280001A4A3C32116007E018493C31096821F0D4
:102290000801164A3C321160704739B1134A273A97
:1022A00012780243114B273B1A7006E00F4A273A77
:1022B000127882430D4B273B1A7070470B48403011
:1022C000006840F08070094940310860704701465D
:1022D0000020064A283A12680A400AB1012000E0AC
:1022E0000020704701492639087070473438024091
:1022F00010B50446FB48844208D101218014FFF741
:1023000052FF0021A014FFF74EFF3CE0F648844244
:1023100008D101210014FFF735FF00212014FFF739
:1023200031FF30E0F148844208D10121C013FFF7AA
:1023300029FF0021E013FFF725FF24E0EC48844249
:1023400008D101214014FFF72EFF00216014FFF790
:102350002AFF18E0E748844209D101210805FFF768
:1023600022FF00214FF48010FFF71DFF0BE0E24831
:10237000844208D101214805FFF715FF00214FF4E1
:102380000010FFF710FF10BD10B50022028802F404
:1023900041520B884C8823438C882343CC882343A9
:1023A0000C8923434C8923438C892343CC892343C1
:1023B0001A430280838B4FF2FF74234083830B8A7E
:1023C000038210BD2DE9F04F0025022300244FF0B9
:1023D000010900220026002794469046B0F81CA070
:1023E0004FF2400B0AEA0B0AA0F81CA04FF0020AB9
:1023F000A0F820A0858BD1F808A0BAF1020F01D176
:1024000000BF82E0B1F804A0BAF1000F02D14FF092
:10241000010901E04FF00209DFF8E0A2DAF800A0BC
:102420000AF4000ABAF1000F09D0DFF8D0A2DAF8F6
:1024300000A02AF4000ADFF8C4B2CBF800A0DFF84D
:10244000BCA20AF17C0ADAF800A0CAF3881CDFF803
:10245000ACA20AF17C0ADAF800A0CAF30278DFF82D
:102460009CA2AAF1040ADAF800A00AF03F07DFF8FC
:102470008CA2AAF1040ADAF800A00AF4800ABAF5DC
:10248000800F08D1DFF878A2BAFBF7FA0AFB0CFA42
:10249000BAFBF8F607E0DFF86CA2BAFBF7FA0AFB22
:1024A0000CFABAFBF8F6B1F806A0BAF5007F0ED127
:1024B0004FEA162A0AEB8A0A4FEA4A0AD1F808B00C
:1024C000BAFBFBFA0AF1050A1FFA8AF20FE04FEA9B
:1024D000491AB6FBFAFA0AEB8A0A4FEA4A0AD1F815
:1024E00008B0BAFBFBFA0AF1050A1FFA8AF24FF0AC
:1024F0000A0AB2FBFAF202F00104A2EB040ACAF3E0
:102500004F034FF6FF7A0AEA0424022B01DBFF2B6C
:1025100001DD02230024B1F806A04AEA040A4AEACF
:10252000030AA0F820A0B1F804A0B1F80CB04AEA60
:102530000B0AB1F802B04AEA0B0AB1F800B04AEA55
:102540000B0A4AF4006A4AEA05058583BDE8F08F64
:102550000021018041808180C18001814181818190
:10256000C181072101827047002101804180818063
:10257000C1800221816000218181704721B10288E0
:1025800042F04002028004E002884FF6BF731A4016
:102590000280704721B1828B42F48062828304E022
:1025A000828B4FF6FF331A408283704702884FF2C6
:1025B000FF731A40028002880A4302807047B1F517
:1025C000804F04D1028842F48042028004E00288F5
:1025D0004BF6FF731A40028070474FF6FF6291423C
:1025E00004D0028842F48072028004E002884FF630
:1025F000FF631A400280704721B1828842F00402D2
:10260000828004E082884FF6FB731A408280704714
:1026100021B1828842F01002828004E082884FF665
:10262000EF731A408280704730B500220023848BFC
:102630004FF240052C40848302240484828B0C8852
:10264000B4F5007F01D00C8814B94FF4807308E012
:102650000C88B4F5407F03D00C88B4F5807F00D19E
:1026600000238C888D892C434D882C431C4344F4D3
:1026700000642243828330BD01468889704781818E
:10268000704721B1028842F40052028004E00288BF
:102690004DF6FF731A4002807047018841F4805163
:1026A0000180704702460020012901D0108B00E014
:1026B000908A70470146088A70471AB183880B4395
:1026C000838002E083888B438380704730B5002489
:1026D00000230C110125A540ABB2AAB185881D438A
:1026E000858014E00030014000380040003C00408C
:1026F00000340140005001400054014008380240BD
:1027000000127A000024F40085889D43858030BD46
:102710000246002013890B400BB1012000E000208D
:102720007047CA4302817047F0B50246002000247A
:102730000023002501F00F070126BE40B4B20B11A3
:1027400001269E40B3B2968806EA03051689264004
:1027500016B10DB1012000E00020F0BD10B500223F
:1027600001F00F040123A3409AB2D343038110BDAB
:1027700010B50446FA48844208D101211020FFF721
:1027800012FD00211020FFF70EFD57E0F5488442AE
:1027900009D101214804FFF7F5FC00214FF4003076
:1027A000FFF7F0FC4AE0F048844209D10121880497
:1027B000FFF7E8FC00214FF48020FFF7E3FC3DE049
:1027C000EA48844209D10121C804FFF7DBFC00215B
:1027D0004FF40020FFF7D6FC30E0E548844209D1F1
:1027E00001210805FFF7CEFC00214FF48010FFF710
:1027F000C9FC23E0DF48844208D101212020FFF7F3
:10280000D2FC00212020FFF7CEFC17E0DA488442FA
:1028100009D101218807FFF7B5FC00214FF0804066
:10282000FFF7B0FC0AE0D548844207D101214005FA
:10283000FFF7A8FC00216005FFF7A4FC10BD2DE9FF
:10284000FF4705460E460024A14600BFA046B089BA
:1028500000B100BF2C8A24F44054F08804432C8239
:10286000AC8941F20C608443B08831890843718996
:1028700008430443AC81AC8A24F44074B089044317
:10288000AC826846FFF70FFBB548854202D0B948D5
:10289000854202D1DDF80C9001E0DDF80890A889AE
:1028A00000F4004040B109EBC90000EB09103168A9
:1028B0004900B0FBF1F707E009EBC90000EB091094
:1028C00031688900B0FBF1F76420B7FBF0F0040138
:1028D0002009642101FB1078A88900F4004040B170
:1028E000322000EBC800B0FBF1F000F00700044319
:1028F00008E0322000EB08106421B0FBF1F000F09A
:102900000F0004432C81BDE8FF874FF4165101608E
:1029100000218180C18001810C21418100218181C0
:10292000704710B502460020108A20F470600B88B2
:102930004C8823438C882343CC882343184310823C
:1029400010BD0021018041808180C180704721B18C
:10295000828942F40052828104E082894DF6FF733D
:102960001A4082817047028B02F47F420283028BFD
:102970000A430283704721B1828942F40042828176
:1029800003E08289C2F30E028281704721B1828AFC
:1029900042F40062828204E0828A4FF2FF731A409E
:1029A00082827047C1F3080282807047014688889E
:1029B000C0F308007047028A4FF6F0731A40028293
:1029C000028A0A430282704721B1828942F00202E0
:1029D000828104E082894FF6FD731A40828170473C
:1029E00082894FF2FF731A40828182890A43828171
:1029F0007047028A4FF6DF731A400282028A0A4346
:102A00000282704721B1028A42F48042028204E0CD
:102A1000028A4BF6FF731A4002827047818941F0A7
:102A200001018181704721B1828A42F008028282CD
:102A300004E0828A4FF6F7731A4082827047028B55
:102A4000D2B20283028B42EA01220283704721B193
:102A5000828A42F02002828204E0828A4FF6DF738B
:102A60001A408282704721B1828A42F0100282822B
:102A700004E0828A4FF6EF731A4082827047828A9E
:102A80004FF6FB731A408282828A0A438282704721
:102A900021B1828A42F00202828204E0828A4FF6E9
:102AA000FD731A40828270471AB1838A0B43838276
:102AB00002E0838A8B4383827047F0B5034600248B
:102AC00000260025002040F66A17B94200D100BF59
:102AD0001846C1F3421401F01F06012707FA06F554
:102AE000012C01D10C3004E0022C01D1103000E0A7
:102AF00014301AB107682F43076002E00768AF433C
:102B00000760F0BD02460020B1F5007F00D100BF94
:102B100013880B400BB1012000E00020704701F446
:102B20000072B2F5007F00D100BFCA430280704737
:102B300070B50246002400230025002040F66A16E6
:102B4000B14200D100BFC1F3421501F01F030126BD
:102B500006FA03F3012D13D19689334017E00000E4
:102B6000001001400044004000480040004C00407C
:102B7000005000400014014000780040007C0040FC
:102B8000022D02D1168A334001E0968A33400C129E
:102B9000012606FA04F41688344013B10CB1012062
:102BA00000E0002070BD10B50022002340F66A143A
:102BB000A14200D100BF0A1201249440A3B2DC4319
:102BC000048010BD10B50446FE48844208D101219E
:102BD0000846FFF7E8FA00210120FFF7E4FA9DE03C
:102BE000B4F1804F08D101210846FFF7CBFA00214C
:102BF0000120FFF7C7FA91E0F348844208D1012190
:102C00000220FFF7BFFA00210220FFF7BBFA85E0A0
:102C1000EE48844208D101210420FFF7B3FA0021D5
:102C20000420FFF7AFFA79E0E948844208D1012196
:102C30000820FFF7A7FA00210820FFF7A3FA6DE0AC
:102C4000E448844208D101211020FFF79BFA0021BB
:102C50001020FFF797FA61E0DF48844208D1012194
:102C60002020FFF78FFA00212020FFF78BFA55E094
:102C7000DA48844208D101210220FFF794FA0021AA
:102C80000220FFF790FA49E0D548844209D101219A
:102C90000804FFF788FA00214FF48030FFF783FA29
:102CA0003CE0D048844209D101214804FFF77BFA77
:102CB00000214FF40030FFF776FA2FE0CA48844233
:102CC00009D101218804FFF76EFA00214FF480201A
:102CD000FFF769FA22E0C548844208D1012140206B
:102CE000FFF750FA00214020FFF74CFA16E0C048E9
:102CF000844208D101218020FFF744FA002180207E
:102D0000FFF740FA0AE0BB48844207D10121801551
:102D1000FFF738FA0021A015FFF734FA10BD0022A2
:102D20000288A84B98420ED0AC4B98420BD0B0F121
:102D3000804F08D0A44B984205D0A44B984202D0B3
:102D4000A34B984204D14FF68F731A404B881A4315
:102D5000A04B984207D0A04B984204D04FF6FF43B7
:102D60001A400B891A4302804B68C3620B880385A3
:102D7000944B984202D0994B984201D18B7A0386AA
:102D80000123838270474FF0FF31416000210180B1
:102D900001814180817270470185828270470A46B5
:102DA000002101884FF68F7319401143018070474D
:102DB00041627047C16270470146486A70470146E8
:102DC000088D704721B1028842F00202028004E0BF
:102DD00002884FF6FD731A400280704721B10288C5
:102DE00042F00402028004E002884FF6FB731A40AE
:102DF0000280704721B1028842F08002028004E024
:102E000002884FF67F731A400280704702884FF69F
:102E1000F7731A40028002880A43028070470288D2
:102E20004FF6FF431A40028002880A43028070472F
:102E300021B1028842F00102028004E002884FF6CC
:102E4000FE731A400280704770B5002400220023F0
:102E5000058C4FF6FE7635400584028C8388048B02
:102E60004FF68F752C40B51E2C400D882C43751ED7
:102E70002A408D892A434D882A43524DA84202D0C8
:102E8000564DA84213D14FF6F7752A40CD892A43F3
:102E90004FF6FB752A408D882A434FF6FF652B407D
:102EA0004FF6FF552B400D8A2B434D8A2B438380D1
:102EB00004838D684563028470BD70B500240022D0
:102EC0000023058C4FF6EF7635400584028C83880D
:102ED000048B48F6FF752C404FF6FF452C400D88BB
:102EE0004FF6FF7606EA05252C434FF6DF752A409C
:102EF0008D8906EA05152A434D8806EA05152A43F9
:102F0000304DA84202D0354DA8421DD14FF67F75F5
:102F10002A40CD894FF6FF7606EA05152A434FF67B
:102F2000BF752A408D8806EA05152A434FF6FF35FE
:102F30002B404FF2FF752B400D8A06EA85052B4387
:102F40004D8A06EA85052B43838004838D6885635B
:102F5000028470BD70B5002400220023058C4FF65A
:102F6000FF6635400584028C8388848B4FF68F750D
:102F70002C404FF6FC752C400D882C434FF6FF5526
:102F80002A408D894FF6FF7606EA05252A434D88AB
:102F900006EA05252A430B4DA84202D00F4DA84250
:102FA00038D14FF2FF752A40CD894FF6FF7606EAF9
:102FB00005252A434FF6FF352A408D8806EA052568
:102FC0002A4319E0000001400004004000080040CE
:102FD000000C0040001000400014004000040140BC
:102FE00000400140004401400048014000180040FA
:102FF000001C0040002000404EF6FF752B404DF6AF
:10300000FF752B400D8A06EA05152B434D8A06EA0B
:1030100005152B43838084838D68C563028470BD4E
:1030200070B5002200230024058C4EF6FF76354053
:103030000584038C8488828B48F6FF752A404FF6FE
:10304000FF452A400D884FF6FF7606EA05252A43FC
:103050004DF6FF752B408D8906EA05352B434D88CB
:1030600006EA05352B43FE4DA84202D0FD4DA8428D
:1030700008D14BF6FF752C400D8A4FF6FF7606EA15
:1030800085152C43848082838D680564038470BD1C
:10309000002101804180818081608181C181018224
:1030A0004182704770B5034600200024184618304E
:1030B00001258D40ACB21D8CA5431D8409B10829A2
:1030C0000AD100EB610005684FF68F763540056048
:1030D0000568154305600FE00D1FC5F34E05284434
:1030E000056848F6FF763540056005684FF6FF76BF
:1030F00006EA02263543056070BD4163704781636F
:103100007047C1637047016470470A460021018B14
:103110004FF68F7319401143018370470A4600210F
:10312000018B48F6FF7319404FF6FF7303EA022341
:103130001943018370470A460021818B4FF68F7334
:1031400019401143818370470A460021818B48F65C
:10315000FF7319404FF6FF7303EA0223194381837B
:1031600070470A460021018B4FF6F773194011434F
:10317000018370470A460021018B4FF2FF7319400B
:103180004FF6FF7303EA02231943018370470A468F
:103190000021818B4FF6F7731940114381837047EB
:1031A0000A460021818B4FF2FF7319404FF6FF73DF
:1031B00003EA02231943818370470A460021018BE9
:1031C0004FF6FB7319401143018370470A460021F3
:1031D000018B4FF6FF3319404FF6FF7303EA0223CA
:1031E0001943018370470A460021818B4FF6FB7318
:1031F00019401143818370470A460021818B4FF6A5
:10320000FF3319404FF6FF7303EA0223194381830A
:1032100070470A460021018B4FF67F731940114316
:10322000018370470A460021018BC1F30E014FF65E
:10323000FF7303EA02231943018370470A46002102
:10324000818B4FF67F7319401143818370470A4683
:103250000021818BC1F30E014FF6FF7303EA0223B5
:103260001943818370470A460021018C4FF6FD7394
:1032700019401143018470470A460021018C4FF622
:10328000F77319401143018470470A460021018CED
:103290004FF6DF7319404FF6FF7303EA0213194329
:1032A000018470470A460021018C4FF67F73194054
:1032B0004FF6FF7303EA02131943018470470A466D
:1032C0000021018C4FF6FF5319404FF6FF7303EABC
:1032D00002231943018470470A460021018C4FF2F2
:1032E000FF7319404FF6FF7303EA02231943018469
:1032F00070470A460021018C4DF6FF7319404FF6C6
:10330000FF7303EA023319430184704730B5002389
:1033100001248C40A3B2048C9C430484048C02FAE4
:1033200001F5ADB22C43048430BD30B50023042434
:103330008C40A3B2048C9C430484048C02FA01F5F3
:10334000ADB22C43048430BD828B4FF2FF331A4060
:103350008283828B4FF6FF7303EA01231A43828331
:103360007047F0B50C461546002100220026078C58
:103370004EF6FF7C07EA0C070784818B028C4FF620
:10338000FF7707EA043640F6FF4739404FF6FF77EC
:1033900007EA052739434FF6FF7707EA0337394332
:1033A00045F6FF773A4046F480573A4381830284DA
:1033B000F0BD828B4FF6F3731A408283828B0A43EF
:1033C00082837047F0B50C46154600210022002686
:1033D000078C4FF6FF6C07EA0C070784818B028C81
:1033E0004FF6FF7707EA04264FF60C7739404FF681
:1033F000FF7707EA03172F4339434FF2FF573A404D
:1034000046F480773A4381830284F0BD028B4FF209
:10341000FF331A400283028B4FF6FF7303EA012346
:103420001A4302837047F0B50C461546002100226E
:103430000026078C4FF6EF7C07EA0C070784018B08
:10344000028C4FF6FF7707EA041640F6FF47394033
:103450004FF6FF7707EA033739434FF6FF7703E06C
:10346000000001400004014007EA052739434FF6F8
:103470005F773A4046F010073A4301830284F0BD7B
:10348000028B4FF6F3731A400283028B0A430283C6
:103490007047F0B50C46154600210022068C4FF609
:1034A000FE773E400684018B028C4FF60C7631404D
:1034B0007E1C06EA03162E4331434FF6F576324062
:1034C00044F00106324301830284F0BD70B5054625
:1034D0000C46208850B92389A28861882846FFF7C6
:1034E000D8FFE1882846FFF7CBFF25E02088042895
:1034F0000AD12389A28861882846FFF794FFE188D2
:103500002846FFF783FF17E0208808280AD123897F
:10351000A28861882846FFF755FFE1882846FFF713
:1035200048FF09E02389A28861882846FFF719FF30
:10353000E1882846FFF708FF70BD00210180418027
:10354000012181800021C180018170472DE9F04176
:1035500005460C4600260127608808B9022600E0CF
:103560000026A088012801D1022700E00127208839
:10357000A0B92389A28861882846FFF78AFFE188DD
:103580002846FFF77DFF23893A4631462846FFF754
:103590004AFFE1882846FFF739FF13E02389A28814
:1035A00061882846FFF73FFFE1882846FFF72EFF96
:1035B00023893A4631462846FFF76BFFE1882846C3
:1035C000FFF75EFFBDE8F0810146486B704701469A
:1035D000886B70470146C86B70470146086C70479E
:1035E0000A884B881A438B881A43CB881A430B8965
:1035F0001A434B891A438B891A43A0F84420704719
:103600000021018041808180C180018141818181CF
:10361000704731B1B0F8442042F40042A0F8442091
:1036200005E0B0F84420C2F30E02A0F84420704731
:1036300021B1828842F00402828004E082884FF641
:10364000FB731A408280704721B1828842F00102E8
:10365000828004E082884FF6FE731A4082807047B1
:103660001AB183890B43838102E083898B43838171
:1036700070478182704702460020138A0B400BB1CD
:10368000012000E000207047CA430282704730B535
:103690000246002000230024158A05EA01039589CB
:1036A00005EA010413B10CB1012000E0002030BD97
:1036B000CA430282704741EA0203A0F848307047CB
:1036C0001AB183890B43838102E083898B43838111
:1036D000704721B1828842F00802828004E082882B
:1036E0004FF6F7731A408280704701894FF6F872DF
:1036F0001140018170470A46002101894FF68F73FE
:10370000194011430181704730B504460D462946E2
:103710002046FFF7F0FF208940F00700208130BDF0
:103720002DE9F04104460D4616461F46602D06D190
:103730003B46012231462046FFF775FE05E03B4639
:10374000012231462046FFF7A4FE29462046FFF716
:10375000D2FF208940F007002081BDE8F08130B51C
:103760000C4600210189C9B24FF6FF7505EA032511
:10377000154325432943018130BD2DE9F04105461C
:103780000E4617469846002443463A463146284698
:10379000FFF7E5FF2C894FF6F870044044F007046A
:1037A0004FF68F70044044F070042C81BDE8F08126
:1037B000F0B504460D4616461F463B46324629469E
:1037C0002046FFF7CCFF208940F480402081F0BDE7
:1037D00082884FF68F731A40828082880A438280E3
:1037E000704702894FF6F8731A40028102890A4332
:1037F0000281704702894FF67F731A400281028965
:103800000A4302817047F0B50C4615461E4600215A
:10381000002200230189028B038C4FF6F877394090
:1038200021434FF6FC473A4040F201173A434FF626
:10383000DD773B404FF6FF7707EA06172F433B4300
:10384000018102830384F0BD21B1828842F08002AD
:10385000828004E082884FF67F731A40828070472E
:10386000A0F85010704770470FB4044910B503AA70
:10387000029800F0D3F810BC5DF814FB1C00002087
:103880002DE9F0410E460446002020622046E16802
:10389000884730B3252805D0D4E901219047206A14
:1038A000401CF2E7E168204600278847050018D051
:1038B000A5F14100192802D820354FF4006732469F
:1038C000294620462760FCF799FC40B1012804D026
:1038D000F61D26F007060836D8E7361DD6E7284637
:1038E000DAE7206ABDE8F0812DE9F04106460024C0
:1038F00010687529314616A510D0AFF30080002856
:1039000002DA404213A507E031688A0701D512A503
:1039100002E0490704D511A5012401E0AFF30080BE
:1039200000210A2206F1240709E0B0FBF2FCB0FBFB
:10393000F2F302FB1C00303078541846491C002872
:10394000F3D123462A463046BDE8F04100F00CB8DA
:10395000000000002D0000002B00000020000000EF
:1039600070477047704770472DE9F0470D469946FC
:103970009246044600F124080168880604D5E069EF
:1039800021F01001216000E00120A84201DD471B69
:1039900000E00027A1697A1902EB0900081AA0616A
:1039A0002078C00602D42046AFF30080002608E04D
:1039B000D4E901211AF806009047206A401C761CC1
:1039C00020624E45F4DB2078C0060AD52046AFF3CE
:1039D000008006E0D4E9012130209047206A401C95
:1039E0002062381EA7F10107F4DC07E0D4E90121C9
:1039F00018F805009047206A401C2062281EA5F197
:103A00000105F3DC2046AFF300802078000602D5E4
:103A10000220BDE8F0870120FBE70000074B70B5EE
:103A20000D467B4400F011F80446284600F020F8CB
:103A300010B14FF0FF3070BD204670BD75DDFFFF47
:103A400001694A1C02610878704700B58FB0CDE962
:103A500001310021059105497944CDE90310114652
:103A60006846FFF70DFF0FB000BD0000E5FFFFFF48
:103A7000007B00F080007047754600F029F8AE46E4
:103A800005006946534620F00700854618B020B56A
:103A9000FDF734FFBDE820404FF000064FF000076F
:103AA0004FF000084FF0000B21F00701AC46ACE8E6
:103AB000C009ACE8C009ACE8C009ACE8C0098D4653
:103AC00070470446AFF300802046FCF7ABFB0000D4
:103AD00000487047FC0000204FF04070E1EE100AF3
:103AE00070473443101001344310100100000000EF
:103AF00000000000000000000000000000000000C6
:103B0000000000000000000000000000000202FAB7
:103B1000FAAAAAFFFFAAAAFAFA02020000427272E7
:103B20003A7A424B5B52626213776600203C1CFF7C
:103B3000FFB0B424243F3FE4E4242420020203FF26
:103B4000FF0001051D59C1FF7F010101000000F8C0
:103B5000F8484C4F4B4A4848F8F80000000000FF76
:103B6000FF44444444444444FFFF0000202424E430
:103B7000E42424243010FFFF10F0F000081C1F0B79
:103B80000C0D4F6E341C0F23607F3F0080C060F827
:103B9000FF070200FFFFE0703C1C08000000007FF0
:103BA0007F0406033F7F404040787800000000001B
:103BB0000000000000000000000000000000000005
:103BC00000000000000000000000000000000000F5
:103BD00000000000000000000000000000000000E5
:103BE00000000000000000000000000010218670AE
:103BF000007E4A4A4A4A4A7E0000000002FE014016
:103C00007F41417F41417F41417F40000000FC04F2
:103C10002424FCA5A6A4FC242424040080601F8086
:103C20008042462A12122A2642C04000080808FF95
:103C30008848009848280A2C48D808000242817F0A
:103C40000000404242427E424242400000504F4A01
:103C500048FF48484800FC0000FF000000003F010A
:103C600001FF21613F000F40807F000000908CA485
:103C7000A4A4A5A6A4A4A4A4948C0400008040201D
:103C800018070000003F404040700000000474D45A
:103C9000FFD47404100CB744B40C04000042437AFF
:103CA0004342437E4B4B4A4A4243010008080808FE
:103CB0000808F94A4C4848C8080808004040201045
:103CC0000C0300002040403F0000000000202C2496
:103CD0006474ADA6E43424242C240000002424259C
:103CE00015150DFE040D171424642400000000F8BF
:103CF00048484C4B4A484848F8000000000000FF84
:103D00004444444444444444FF000000202424E448
:103D1000242424201010FF1010F00000081C0B08B1
:103D20000C054E24100C0320403F0000080808FF3B
:103D30008848009848280A2C48D808000242817F09
:103D40000000404242427E424242400000504F4A00
:103D500048FF48484800FC0000FF000000003F0109
:103D600001FF21613F000F40807F00000807FAAA91
:103D7000AEAAAAA8ACABAAFE0A02020008088B6A87
:103D80001E0A0A0A0AFE0A0B08080800106001C68B
:103D90003000101010FF1010101000000404FE017D
:103DA000004161514D43414151E101004041CE0488
:103DB000008040BE828282BEC040400000007F2062
:103DC000908040432C10102C43C0400020212EE452
:103DD000000020202020FF20202020000000007F65
:103DE000201008000000FF00000000000000F8485C
:103DF000484848FF48484848F800000000000F04C1
:103E00000404043F444444444F4070000000020254
:103E1000020202E2120A0602008000000101010112
:103E20000141817F010101010101010000202022E7
:103E300022E2222222E22222222020000040201020
:103E40000C030000003F4040404070004020F80F4D
:103E500082601E1410FF1010101000000000FF0000
:103E60000101010101FF0101010101000000000049
:103E70007E4848484848484848CC080000040404A4
:103E80000404040404244644201F0000849494FF86
:103E9000949480242424FC1213120000201806FF9E
:103EA000021C0A0202023F41414171001010D0FE83
:103EB000509000101010D0FE10101000080601FFE6
:103EC000000110080443807F000000009088A7A232
:103ED000A6BAA2F8A7A2A6BAA2828000000404048F
:103EE000040C340444847F04040400000000000037
:103EF00000000000002F0000000007000700001471
:103F00007F147F1400242A7F2A120062640813237E
:103F100000364955225000000503000000001C2215
:103F20004100000041221C000014083E0814000853
:103F3000083E0808000000A0600000080808080803
:103F4000000060600000002010080402003E51499B
:103F5000453E0000427F4000004261514946002139
:103F600041454B31001814127F1000274545453953
:103F7000003C4A49493000017109050300364949AE
:103F8000493600064949291E000036360000000067
:103F900056360000000814224100001414141414B2
:103FA000000041221408000201510906003249595B
:103FB000513E007C1211127C007F49494936003E77
:103FC00041414122007F4141221C007F4949494132
:103FD000007F09090901003E4149497A007F08082C
:103FE000087F0000417F4100002040413F01007FE9
:103FF00008142241007F40404040007F020C027FB5
:10400000007F0408107F003E4141413E007F0909C6
:104010000906003E4151215E007F091929460046EC
:10402000494949310001017F0101003F4040403FC3
:10403000001F2040201F003F4038403F006314080D
:1040400014630007087008070061514945430000E8
:104050007F41410000552A552A55000041417F000B
:104060000004020102040040404040400000010200
:104070000400002054545478007F484444380038E9
:104080004444442000384444487F00385454541871
:1040900000087E0901020018A4A4A47C007F080483
:1040A00004780000447D4000004080847D00007F53
:1040B000102844000000417F4000007C0418047870
:1040C000007C0804047800384444443800FC24246C
:1040D00024180018242418FC007C08040408004854
:1040E0005454542000043F444020003C4040207C75
:1040F000001C2040201C003C4030403C0044281064
:104100002844001CA0A0A07C004464544C44141417
:10411000141414140000000000000000000000004F
:1041200000000000000000F8000000000000003364
:104130003000000000100C06100C0600000000000B
:104140000000000040C07840C0784000043F0404F4
:104150003F040400007088FC08300000001820FFB5
:10416000211E0000F008F000E018000000211C03F0
:104170001E211E0000F00888700000001E2123246C
:104180001927211010160E0000000000000000008A
:1041900000000000000000E018040200000000071A
:1041A0001820400000020418E00000000040201821
:1041B00007000000404080F0804040000202010FF4
:1041C00001020200000000F0000000000101011FD8
:1041D00001010100000000000000000080B070003C
:1041E00000000000000000000000000000010101CC
:1041F000010101010000000000000000003030005B
:104200000000000000000000806018040060180634
:104210000100000000E010080810E000000F10206E
:1042200020100F00001010F8000000000020203FB8
:104230002020000000700808088870000030282442
:1042400022213000003008888848300000182020E3
:1042500020110E000000C02010F800000007042408
:10426000243F240000F8088888080800001921204D
:1042700020110E0000E0108888180000000F1120A7
:1042800020110E0000380808C83808000000003F60
:10429000000000000070880808887000001C2221BF
:1042A00021221C0000E010080810E000000031226C
:1042B00022110F00000000C0C0000000000000300C
:1042C000300000000000008000000000000080605E
:1042D00000000000000080402010080000010204DF
:1042E00008102000404040404040400004040404C6
:1042F0000404040000081020408000000020100882
:1043000004020100007048080808F00000000030B6
:1043100036010000C030C828E810E0000718272444
:1043200023140B000000C038E0000000203C2302F2
:104330000227382008F8888888700000203F202055
:1043400020110E00C0300808080838000718202087
:104350002010080008F808080810E000203F20207E
:1043600020100F0008F88888E8081000203F20205F
:104370002320180008F88888E8081000203F200053
:1043800003000000C030080808380000071820208B
:10439000221E020008F808000008F808203F21014A
:1043A00001213F20000808F8080800000020203FF5
:1043B0002020000000000808F8080800C080808065
:1043C0007F00000008F888C028180800203F20015E
:1043D0002638200008F8080000000000203F2020B8
:1043E0002020300008F8F800F8F80800203F003FCF
:1043F000003F200008F830C00008F808203F2000E7
:1044000007183F00E01008080810E0000F102020F7
:1044100020100F0008F808080808F000203F2101CC
:1044200001010000E01008080810E0000F18242423
:1044300038504F0008F8888888887000203F200096
:10444000030C30200070880808083800003820214C
:1044500021221C00180808F8080818000000203F56
:104460002000000008F808000008F808001F2020BD
:1044700020201F000878880000C83808000007388E
:104480000E010000F80800F80008F800033C0700DF
:10449000073C0300081868808068180820302C0347
:1044A000032C30200838C800C83808000000203F1E
:1044B0002000000010080808C8380800203826210D
:1044C00020201800000000FE020202000000007F11
:1044D00040404000000C30C000000000000000011F
:1044E0000638C00000020202FE000000004040400A
:1044F0007F0000000000040202020400000000002F
:1045000000000000000000000000000080808080AB
:104510008080808000020204000000000000000093
:10452000000000000000808080800000001924222C
:1045300022223F2008F8008080000000003F112068
:1045400020110E000000008080800000000E11206D
:1045500020201100000000808088F800000E11204B
:1045600020103F200000808080800000001F222259
:1045700022221300008080F0888888180020203FC5
:10458000202000000000808080808000006B9494D8
:104590009493600008F8008080800000203F210094
:1045A00000203F2000809898000000000020203F5D
:1045B00020200000000000809898000000C080804B
:1045C000807F000008F8000080808000203F2402E7
:1045D0002D302000000808F8000000000020203FD7
:1045E000202000008080808080808000203F20008C
:1045F0003F20003F8080008080800000203F21001D
:1046000000203F200000808080800000001F2020CC
:1046100020201F00808000808000000080FFA120FB
:1046200020110E000000008080808000000E11200C
:1046300020A0FF80808080008080800020203F219B
:10464000200001000000808080808000003324244E
:1046500024241900008080E0808000000000001FFA
:10466000202000008080000000808000001F2020AB
:1046700020103F20808080000080808000010E306C
:104680000806010080800080008080800F300C03CD
:104690000C300F0000808000808080000020312ED0
:1046A0000E312000808080000080808080818E70AC
:1046B0001806010000808080808080000021302C5E
:1046C0002221300000000000807C02020000000077
:1046D000003F404000000000FF000000000000001C
:1046E000FF0000000002027C800000000040403F0C
:1046F00000000000000601010202040400000000A6
:1047000000000000244700080000002034000000E2
:10471000C401000858470008340000202C0700009E
:10472000E001000800000000007A030A0000000019
:104730000000000001020304060708090000000051
:10474000000000000000000000000102030401025C
:0847500003040607080900003C
:040000050800018965
:00000001FF
